:100000000C94EB000C94CB120C94F8120C9413018A
:100010000C9413010C9413010C9413010C94130110
:100020000C9413010C9413010C9413010C94130100
:100030000C9413010C9413010C9413010C941301F0
:100040000C9425130C9413010C9424160C94A716ED
:100050000C9413010C9413010C9413010C941301D0
:100060000C947A070C9413011F1C1F1E1F1E1F1FC8
:100070001E1F1E1F005EBCE2613FDD83C29C7E200E
:10008000A3FD1F419DC3217FFCA2401E5F01E3BD74
:100090003E6082DC237D9FC1421CFEA0E1BF5D0368
:1000A00080DE3C62BEE0025CDF81633D7C22C09E5C
:1000B0001D43A1FF4618FAA427799BC584DA386648
:1000C000E5BB5907DB856739BAE406581947A5FB34
:1000D0007826C49A653BD987045AB8E6A7F91B4528
:1000E000C6987A24F8A6441A99C7257B3A6486D81C
:1000F0005B05E7B98CD2306EEDB3510F4E10F2AC08
:100100002F7193CD114FADF3702ECC92D38D6F31F3
:10011000B2EC0E50AFF1134DCE90722C6D33D18FE7
:100120000C52B0EE326C8ED0530DEFB1F0AE4C12DB
:1001300091CF2D73CA947628ABF517490856B4EAC7
:100140006937D58B5709EBB536688AD495CB2977B3
:10015000F4AA4816E9B7550B88D6346A2B7597C9A7
:100160004A14F6A8742AC896154BA9F7B6E80A549B
:10017000D7896B3500000000240027002A0000000A
:100180000000250028002B000000000023002600AE
:10019000290004040404040404040202020202020A
:1001A000030303030303010204081020408001023B
:1001B00004081020010204081020000000070002BB
:1001C000010000030406000000000000000016010A
:1001D0001606340C5A1611241FBECFEFD8E0DEBF2E
:1001E000CDBF12E0A0E0B1E0E2E2F8E302C005908A
:1001F0000D92A231B107D9F714E0A2E1B2E001C03B
:100200001D92AC3FB107E1F711E0C6EDD1E004C0AB
:100210002297FE010E940B1CCE3CD107C9F70E9419
:10022000CD160C940F1C0C9400000895EF92FF92D1
:100230000F931F9302E112E0C80166E00E94330EA3
:1002400080E292E0B8010E94690E05E312E0C80165
:1002500067E00E94330E83E492E0B8010E94690EC9
:1002600008E512E0C80168E00E94330E86E692E0DD
:10027000B8010E94690E81EE92E00E94E90A9FE5B2
:10028000E92E93E0F92EC70140E050E060E070E015
:1002900000E010E020E030E00E940F0B87E693E0E2
:1002A000B7014BE752E02091DF020E941D0B8AE765
:1002B00093E00E94E80A1F910F91FF90EF9008953C
:1002C00085E060E00E949814089583E060E00E9459
:1002D0009814089583E061E00E949814089585E0E1
:1002E00061E00E94981460ED77E080E090E00E9469
:1002F000CC130895DF93CF93CDB7DEB763970FB6D6
:10030000F894DEBF0FBECDBFCE0101966FE573E05E
:100310004BE752E02091DF020E941D0B8B818093FE
:1003200069038C8180936A038D819E8190936C0315
:1003300080936B038F8180936D03AEE6B3E0FE0183
:10034000389688E001900D928150E1F7888999896B
:1003500090937703809376038A89809378038B89BF
:100360008093790381EE92E067E673E00E94C40B0C
:100370008FE594E060E071E00E94621963960FB629
:10038000F894DEBF0FBECDBFCF91DF91089585E019
:1003900061E00E9459140E946F0181EE92E06FE5C6
:1003A00074E00E94FB0A08951F93CF93DF93EC0142
:1003B00010E08881803130F48FE594E06DE071E0E9
:1003C0000E9468188FE594E0699140E150E00E9436
:1003D000C6171F5F183069F7DF91CF911F910895FD
:1003E000DF92EF92FF920F931F93DF93CF93CDB7DE
:1003F000DEB72E970FB6F894DEBF0FBECDBF0E94BA
:10040000D909288739874A875B876C877D878E87DC
:10041000DE011196FE01389687E001900D92815021
:10042000E1F7DE80ED80FC800B811A81698170E04C
:100430006053784F8FE594E04AE050E00E94B51792
:100440008FE594E06FE071E00E9468181A3040F484
:100450008FE594E060E070E04AE050E00E943618DA
:100460008FE594E0612F4AE050E00E94C6178FE5C7
:1004700094E06FE071E00E9468180A3040F48FE564
:1004800094E060E070E04AE050E00E9436188FE5AA
:1004900094E0602F4AE050E00E94C6178FE594E098
:1004A00061E171E00E94681889E08F1540F08FE5E6
:1004B00094E060E070E04AE050E00E9436188FE57A
:1004C00094E06F2D4AE050E00E94C6178FE594E05B
:1004D00063E171E00E94681889E08E1540F08FE5B5
:1004E00094E060E070E04AE050E00E9436188FE54A
:1004F00094E06E2D4AE050E00E94C6178FE594E02C
:1005000063E171E00E94681889E08D1540F08FE585
:1005100094E060E070E04AE050E00E9436188FE519
:1005200094E06D2D4AE050E00E94D8172E960FB649
:10053000F894DEBF0FBECDBFCF91DF911F910F9119
:10054000FF90EF90DF9008950F931F935A9A52985F
:1005500083B7817F846083BF04E813E0C8010E94F1
:10056000B80A80E065E171E040E050E00E94951239
:10057000C80162E00E94A50983B7816083BF83B789
:10058000816083BF889583B78E7F83BF1F910F9152
:1005900008950E9460010E9465010E94A4020895CE
:1005A00080E00E94B81283B78E7F83BF08950E94B7
:1005B000D0020E946F010E946A010895EF92FF929B
:1005C0000F931F93DF93CF93CDB7DEB72E970FB660
:1005D000F894DEBF0FBECDBF0E94C9020E94D002B8
:1005E0007E010894E11CF11C8E01085F1F4F04C0BE
:1005F0000E94C9020E94D0020E94D9092887398727
:100600004A875B876C877D878E87D701F80187E0F3
:1006100001900D928150E1F78D8165E00E94B41B3D
:10062000992331F70E94D7022E960FB6F894DEBFB9
:100630000FBECDBFCF91DF911F910F91FF90EF9033
:1006400008950F931F9308E813E0C8010E948612D3
:10065000C8010E94701290E01F910F9108950F93AE
:100660001F9383E061E00E9459140E946A0100E236
:1006700012E0C8010E940712C8016CE00E94C41178
:10068000C8010E94780E809333021092340203E472
:1006900012E0C8010E940712C8016CE00E94C41158
:1006A000C8010E94780E809356021092570206E607
:1006B00012E0C8010E940712C8016CE00E94C41138
:1006C000C8010E94780E8093790210927A020FE599
:1006D00014E0C80165E171E00E946818609133027E
:1006E00070913402C8014AE050E00E944918C801E4
:1006F0006DE271E00E946818609156027091570295
:10070000C8014AE050E00E944918C80165E471E060
:100710000E9468186091790270917A02C8014AE0DB
:1007200050E00E9449181F910F910895DF93CF93D5
:10073000CDB7DEB72E970FB6F894DEBF0FBECDBF94
:100740000E94D909288739874A875B876C877D870C
:100750008E87DE011196FE01389687E001900D929A
:100760008150E1F7CE0101960E942909AB01BC013D
:100770002091DF02243660F4E22FF0E0E558FD4FCF
:10078000872F9927AA27BB2780832F5F2093DF021B
:100790002091DF02243668F4E22FF0E0E558FD4FA7
:1007A000CB01BB2797FDB095AB2F80832F5F2093A4
:1007B000DF022091DF02243670F4E22FF0E0E558EA
:1007C000FD4FBB2777FDBA95A72F962F852F8083E6
:1007D0002F5F2093DF028091DF02843640F4E82F00
:1007E000F0E0E558FD4F40838F5F8093DF022E9647
:1007F0000FB6F894DEBF0FBECDBFCF91DF91089545
:100800004F925F926F927F928F929F92AF92BF9220
:10081000CF92DF92EF92FF920F931F93DF93CF93CC
:10082000CDB7DEB728970FB6F894DEBF0FBECDBFA9
:100830006C014B011092E00281E080937B02809377
:10084000DF020E949603C6010E94801000E010E0C3
:100850005E010894A11CB11C44E5442E39E0632ECE
:10086000712C6C0E7D1E2CE2522ED8C0C601B50133
:10087000402F0E946F11C601602F0E949D1120E041
:1008800030E048EC52E40E942E1B0E94471A7B0184
:100890008091DF02843640F4E82FF0E0E558FD4F08
:1008A00010828F5F8093DF028091DF02843640F4F4
:1008B000E82FF0E0E558FD4F40828F5F8093DF0224
:1008C0008091DF02D5019C91843630F4E82FF0E06E
:1008D000E558FD4F90838F5F1196A615B70599F7E0
:1008E0008093DF02843640F4E82FF0E0E558FD4FB6
:1008F00010828F5F8093DF028091DF02843640F4A4
:10090000E82FF0E0E558FD4F50828F5F8093DF02C3
:100910002091DF02243660F4E22FF0E0E558FD4F2D
:100920008F2D992787FD9A9580832F5F2093DF0273
:100930008091DF02843640F4E82FF0E0E558FD4F67
:10094000E0828F5F8093DF028091DF02843640F483
:10095000E82FF0E0E558FD4F10828F5F8093DF02B3
:100960008091DF02843640F4E82FF0E0E558FD4F37
:1009700050828F5F8093DF028FE594E06CE571E039
:100980000E946818C5010E94D4018FE594E066E6D4
:1009900071E00E946818B701882777FD8095982F2D
:1009A0000E947A1A20E030E048EC52E40E94DF19FD
:1009B000AB01BC018FE594E022E030E00E944F19CA
:1009C0000F5F1F4FC80165E070E00E94C01B892BBC
:1009D00029F50E942103AC012091DF02243660F446
:1009E000E22FF0E0E558FD4F852F992787FD9A9576
:1009F00080832F5F2093DF028091DF02843640F4F2
:100A0000E82FF0E0E558FD4F40838F5F8093DF02D1
:100A10000E947A011092DF021092E0020815190577
:100A20000CF424CF0E942103AC012091DF02243674
:100A300058F4E22FF0E0E558FD4F892F990F990BFC
:100A400080832F5F2093DF028091DF02843640F4A1
:100A5000E82FF0E0E558FD4F40838F5F8093DF0281
:100A60000E947A0128960FB6F894DEBF0FBECDBF64
:100A7000CF91DF911F910F91FF90EF90DF90CF907A
:100A8000BF90AF909F908F907F906F905F904F90AE
:100A900008950F931F93F894A89529E288E190E0B8
:100AA0000FB6F894A895809360000FBE2093600065
:100AB00078940FE514E0C80166E771E00E946818B9
:100AC0000E94F001A895C80161E871E00E946219D6
:100AD000609133027091340280E292E00E9400043F
:100AE000A895C80161E971E00E94621960915602FF
:100AF0007091570283E492E00E940004A895C80117
:100B000061EA71E00E9462196091790270917A0243
:100B100086E692E00E940004F894A89588E10FB65A
:100B2000F89480936000109260000FBE789468EE95
:100B300073E080E090E00E94CC130E94DE021F91DF
:100B40000F9108950F931F93F894A89529E288E1D7
:100B500090E00FB6F894A895809360000FBE2093A4
:100B6000600078940FE514E0C80140E051EE60E0C9
:100B700070E026E00E941C1580ED93E00E94B6060E
:100B800084E893E00E94C70A0E94C701A895C801A3
:100B900060EB71E00E9462190E942F03F894A895FF
:100BA00088E10FB6F89480936000109260000FBE49
:100BB00078941F910F91089581E08093CF03609303
:100BC000AC031092CD031092CE0308952091AB0395
:100BD00030E08091AA03281B3109C9010895409192
:100BE000AA038091AB03481718F02FEF3FEF0AC01C
:100BF000E42FF0E0E657FC4F8081282F30E04F5F74
:100C00004093AA03C9010895E091AA038091AB0320
:100C1000E81718F0EFEFFFEF06C0F0E0E657FC4FE3
:100C20008081E82FF0E0CF01089508951092D3035A
:100C30001092D20388EE93E0A0E0B0E08093D4035A
:100C40009093D503A093D603B093D7038DEE91E094
:100C50009093D1038093D0030895CF92DF92EF92C7
:100C6000FF920F931F93CF93DF937C016B018A0157
:100C70008091CF038823A1F0C0E0D0E00DC0D70160
:100C8000ED91FC91D601AC0FBD1F0190F081E02DDC
:100C9000C7016C9109952196C017D10780F304C054
:100CA000CB01642F0E945F07C801DF91CF911F9194
:100CB0000F91FF90EF90DF90CF900895DF93CF9347
:100CC0000F92CDB7DEB7FC0169838091CF038823F3
:100CD000C9F08091CE03803238F081E090E09383B8
:100CE000828320E030E015C08091CD03E82FF0E052
:100CF000E355FC4F998190838F5F8093CD03809360
:100D0000CE0305C0CE01019661E00E945F0721E09D
:100D100030E0C9010F90CF91DF9108950F93062F16
:100D20008091AC036DEA73E04091CE0321E00E9414
:100D30000A071092CD031092CE031092CF030F91A9
:100D4000089561E00E948E060895413208F040E265
:100D5000862F6AE873E00E94C1061092AA0380936E
:100D6000AB03089521E00E94A50608951092AA03FE
:100D70001092AB031092CD031092CE030E940B0988
:100D80000895382F413210F040E042C08091DC03DA
:100D90008823E1F791E09093DC032093DE038FEF4B
:100DA00080934904109204044150409305044F5F1E
:100DB0009093DD038091DD03330F832B8093DD035C
:100DC0008091DF03813041F41092DF038091DD03D5
:100DD0008093BB0085EC01C085EE8093BC008091C0
:100DE000DC038130E1F380910404841710F4409116
:100DF000040420E030E00AC0FB01E20FF31FD90138
:100E0000AC51BC4F8C9180832F5F3F4F2417A0F3D0
:100E1000842F08950F931F93582F122F413210F0F3
:100E200081E04AC08091DC038823E1F782E080936F
:100E3000DC030093DE038FEF8093490410920404D7
:100E400040930504A4EEB3E0FB0102C081918D93B1
:100E50008E2F861B8417D0F31092DD038091DD0363
:100E6000550F852B8093DD038091DF03813041F4A2
:100E70001092DF038091DD038093BB0085EC01C0FD
:100E800085EE8093BC00112321F08091DC03823039
:100E9000E1F3809149048F3F11F480E00DC080910F
:100EA0004904803211F482E007C080914904803304
:100EB00011F084E001C083E01F910F910895482F45
:100EC000613210F081E008958091DC03843011F0EC
:100ED00082E0089560932704A6E0B4E0842F9C018B
:100EE000F90102C081918D938E2F841B8617D0F358
:100EF00080E008951F920F920FB60F9211242F9346
:100F00003F934F935F936F937F938F939F93AF9391
:100F1000BF93EF93FF938091B90090E0887F90702A
:100F20008036910509F4F2C081369105CCF58832FE
:100F3000910509F47BC089329105B4F480319105A3
:100F400009F46FC0813191053CF4009709F447C161
:100F5000089709F04FC165C08831910509F466C052
:100F6000809709F047C182C08034910509F4A4C07C
:100F70008134910544F48033910509F482C0C89707
:100F800009F038C189C08035910509F489C08835D8
:100F9000910509F496C08834910509F02BC1AEC0C3
:100FA0008839910509F413C189399105ECF4883722
:100FB000910509F4ABC0893791054CF48836910549
:100FC00009F4A4C08037910509F014C19FC0883886
:100FD000910509F4FCC08039910509F49DC0803861
:100FE000910509F007C198C0803B910509F4C6C07E
:100FF000813B91054CF4803A910509F49FC0883AF1
:10100000910509F0F7C0BAC0803C910509F4E3C02E
:10101000883C910509F4DFC0883B910509F0EAC0DE
:10102000C2C08091DD038093BB00CFC090910404C7
:1010300080910504981768F490910404E92FF0E07A
:10104000EC51FC4F80818093BB009F5F9093040420
:10105000BCC08091DE03882309F44BC085ED8093EA
:10106000BC008091BC0084FDFCCFC2C080E28093B4
:10107000490485ED8093BC008091BC0084FDFCCFC9
:10108000B7C080E38093490485ED8093BC008091D4
:10109000BC0084FDFCCFACC088E3809349049BC0B6
:1010A000809104049091BB00E82FF0E0EC51FC4FDC
:1010B00090838F5F809304049091040480910504D1
:1010C00082C0809104049091BB00E82FF0E0EC51C5
:1010D000FC4F90838F5F809304048091DE0388230C
:1010E00041F085ED8093BC008091BC0084FDFCCF75
:1010F0007FC081E08093DF0384EA6EC085ED80933A
:10110000BC008091BC0084FDFCCF72C083E0809362
:10111000DC031092480459C080914804803208F0E2
:1011200056C0809148049091BB00E82FF0E0E85D44
:10113000FB4F90838F5F8093480447C080914804A1
:10114000803230F4E0914804F0E0E85DFB4F10821B
:1011500085ED8093BC008091BC0084FDFCCF109293
:10116000DC0360914804E091E203F091E30388E23C
:1011700094E070E00995109248042DC084E08093BB
:10118000DC031092260410922704E091E003F09112
:10119000E103099580912704882329F481E0809355
:1011A00027041092060490912604E92FF0E0EA5FEC
:1011B000FB4F80818093BB009F5F909326049091AA
:1011C000260480912704981710F485EC01C085E867
:1011D0008093BC000FC085EC8093BC0009C01092C6
:1011E000490485ED8093BC008091BC0084FDFCCF58
:1011F0001092DC03FF91EF91BF91AF919F918F917E
:101200007F916F915F914F913F912F910F900FBE02
:101210000F901F9018951092DC0381E08093DE03FD
:101220001092DF0382E161E00E94981483E161E0A3
:101230000E949814E9EBF0E080818E7F80838081AA
:101240008D7F808380E28093B80085E48093BC002A
:101250000895CF93DF93EC018881282F30E06981D6
:101260008A81482F50E0E8E6F0E091E005C08491E3
:10127000480F511D9F5F31969617C8F3633038F0C1
:10128000C90183709070892B11F44F5F5F4F8DE619
:1012900091E0289FB001299F700D389F700D112497
:1012A000615070402D5F3F4F3695279536952795B5
:1012B000620F731F640F751F80E090E028E130E03B
:1012C00040E050E00E94951B2B81620F711D811D33
:1012D000911D2CE330E040E050E00E94951B2C81F2
:1012E000620F711D811D911D2CE330E040E050E044
:1012F0000E94951B9B01AC018D81280F311D411D62
:10130000511DB901CA01DF91CF910895EF92FF926B
:101310000F931F93162F042F20EDE22E23E0F22EC1
:10132000C70168E670E00E94DC05C701612F0E94DA
:101330005E06C701602F0E945E06C7010E94A106DB
:101340001F910F91FF90EF9008951F93CF93DF931C
:10135000EC01162F6EE04DE10E948609123041F03B
:10136000133079F0113009F5CE0167E040E803C091
:10137000CE0167E040E00E948609CE0168E040E8C7
:1013800008C0CE0167E040E00E948609CE0168E017
:1013900040E00E948609CE0169E040E80E9486098B
:1013A000CE016AE040E80E948609DF91CF911F914B
:1013B0000895AF92BF92CF92DF92EF92FF920F9378
:1013C0001F93DF93CF93CDB7DEB727970FB6F8946F
:1013D000DEBF0FBECDBF00ED13E0C80168E670E0D0
:1013E0000E94DC05C80160E00E945E06C8010E9400
:1013F000A106C80168E670E048E050E00E94B2062D
:10140000C8010E94EF05B82EC8010E94EF05C82E42
:10141000C8010E94EF059FE3D92ED822C8010E947F
:10142000EF05A82EC8010E94EF05E82EC8010E9412
:10143000EF05F82EC8010E94EF05282F30E0B4E038
:1014400035952795BA95E1F74AEF5FEFB901649FAB
:101450009001659F300D749F300D1124820F90E034
:101460002B2D30E0A4E035952795AA95E1F7B90139
:10147000649F9001659F300D749F300D1124B20E52
:101480002C2D30E0F4E035952795FA95E1F7B90178
:10149000649F9001659F300D749F300D1124C20E22
:1014A0002D2D30E0E4E035952795EA95E1F7B90177
:1014B000649F9001659F300D749F300D1124D20EF2
:1014C0002E2D30E074E0359527957A95E1F7B90136
:1014D000649F9001659F300D749F300D1124E20EC2
:1014E0002F2D30E064E0359527956A95E1F7B90135
:1014F000649F9001659F300D749F300D1124F20E92
:10150000282F3F2D4E2D5D2D6C2D7B2D8A2D27965E
:101510000FB6F894DEBF0FBECDBFCF91DF911F9104
:101520000F91FF90EF90DF90CF90BF90AF90089514
:10153000FF920F931F93F62E00ED13E0C80168E6AB
:1015400070E00E94DC05C8016F2D0E945E06C80194
:101550000E94A106C80168E670E041E050E00E94E8
:10156000B206C8010E94EF051F910F91FF900895E8
:101570000F931F938C016FE00E94980A482F4E7FB3
:10158000C8016FE00E9486091F910F9108950F9383
:101590001F938C016EE04CE10E9486096AE070E0C6
:1015A00080E090E00E94CC13C80162E00E94980A9B
:1015B000482F4F7BC80162E00E9486096AE070E014
:1015C00080E090E00E94CC1381E01F910F9108957C
:1015D0000895FC01128611861486158617821086DE
:1015E00015820E9691838083E458FF4F8FE594E037
:1015F000918380830895FC01E458FF4F71836083D9
:101600000895FC01E458FF4FA081B181ED91FC9158
:1016100011970284F385E02DCD01099508950F936C
:101620001F93FC014083518362837383048315837A
:10163000268337831F910F910895CF93DF93FC0189
:1016400080E1828381E083835583448326838DEF09
:1016500091E091838083EF012796DB0188E00D9074
:1016600009928150E1F78EEF9FEF908B8787118A67
:10167000128ADF91CF910895FC01662311F48285CF
:101680000895613011F481850895623029F48781CD
:101690009085A185B28512C0633011F487810895C9
:1016A000643011F486850895653011F485850895B8
:1016B000663049F483859485A585B685892F9A2F50
:1016C000AB2FBB270895673011F4838508956830E8
:1016D00011F480890895693011F4878508956A307E
:1016E00011F4818908956B3011F482890895048082
:1016F000F581E02DE60FF11D3C9780810895FC01F6
:101700008681845F08950F93DF93CF9300D0CDB788
:10171000DEB7FC01062F442321F1862F8D5782303E
:1017200020F0613111F06331E1F4CF0184589F4F13
:101730009A838983DC01ED91FC91A081B1812D9187
:101740003C91CF016DE7F9010995A981BA81ED912D
:10175000FC91A081B18160E260272D913C91CF0185
:101760000BC0E458FF4F0190F081E02DA081B181C2
:101770002D913C91CF01602FF90109950F900F90A9
:10178000CF91DF910F910895CF92DF92FF920F9347
:101790001F93CF93DF936C01EB016EE740E00E9453
:1017A000830BE881F9810280F381E02DCE01099558
:1017B000082FE881F9810280F381E02DCE0109959F
:1017C000F82E10E00E5F1F4FC601612F41E00E940E
:1017D000830B82E0F80EC6016F2D41E00E94830B5F
:1017E000C6016A8141E00E94830BC6016B8141E022
:1017F0000E94830BFB808A81F80E00E010E018C085
:10180000E881F9810190F081E02DCE01602F0995EA
:10181000682FC60141E00E94830BE881F9810190A5
:10182000F081E02DCE01602F0995F80E0F5F1F4F5C
:10183000E881F9810280F381E02DCE01099590E0E5
:1018400008171907ECF2F094C6016F2D41E00E94D1
:10185000830BC6010E94010BDF91CF911F910F9165
:10186000FF90DF90CF90089510924A0410924B049D
:1018700010924C0410924D048FEF9FEFA0E0B0E067
:1018800080934E0490934F04A0935004B09351045E
:101890000895FC0113861586148687E090E0128671
:1018A0003197009711F00197FACF0895DC0180E09D
:1018B0000BC0E82FF0E08D9190E0E827F927EC5875
:1018C000FF4FE49161508E2F662399F70895DF92C0
:1018D000EF92FF920F931F93FC01E0800181128130
:1018E000F894F80181818E2981838281DE2CD09445
:1018F0008D21828383E090E00E948713F80181812B
:101900008D2181838AE090E00E948713F801008195
:10191000789485E390E00E94871380E010E0FF2434
:101920000E211F21012B09F081E01F910F91FF90E3
:10193000EF90DF900895EF92FF920F931F93CF9354
:10194000DF937C0101E010E0C0E0D0E0C7010E941D
:10195000670C8111102B000F2196C830D105B1F70B
:10196000812FDF91CF911F910F91FF90EF900895FC
:101970001F93CF93DF93FC011081C181D281912FFE
:10198000909560FF12C0F8948A8189238A838981A7
:10199000812B89838AE090E00E9487138A81812BC2
:1019A0008A83789487E390E011C0F8948A81892330
:1019B0008A838981812B898381E490E00E94871347
:1019C0008A81812B8A83789485E090E00E94871336
:1019D000DF91CF911F910895CF92DF92EF92FF9206
:1019E0000F931F93CF93DF938C01E42EFF24F39486
:1019F000C0E0D0E0C62EDD2460E08F2D90E08C2189
:101A00009D21892B09F061E0C8010E94B80CFF0CF0
:101A10002196C830D10581F7EE20A9F4F894D801B9
:101A20001196ED91FC91129791818C91809598235C
:101A300091831196ED91FC91129792818C918095F2
:101A4000982392837894DF91CF911F910F91FF900B
:101A5000EF90DF90CF9008956CEC40E00E94EC0C8A
:101A60000895EF92FF920F931F93CF93DF938C0112
:101A70007B0165E540E00E94EC0CC0E0D0E0F7019E
:101A8000EC0FFD1FC801608140E00E94EC0C219624
:101A9000C830D105A1F7DF91CF911F910F91FF9031
:101AA000EF900895DF92EF92FF920F931F93CF93E1
:101AB000DF93FC010081C181D281F8948981D02E0D
:101AC000D0948D21898378941DE7E02EFF24115056
:101AD00059F182E090E00E948713888190E08E2186
:101AE0009F21892BA1F3F8948A818D218A83898192
:101AF000802B8983789480EE91E00E948713F8947C
:101B000089818D21898386E490E00E9487138881F2
:101B100010E090E0E822F922EF2809F411E078942F
:101B20008AE991E00E948713812FDF91CF911F9165
:101B30000F91FF90EF90DF900895AF92BF92DF92E8
:101B4000EF92FF920F931F93CF93DF93EC015B0112
:101B50008D85882309F061C0CE010E94520D882333
:101B600029F41B861D861C8690E06BC0CE0160EFB9
:101B700040E00E94EC0C01E0DD24EE24FF24F3940D
:101B8000CE010E94670C182FCE010E94670C113005
:101B900019F48130E1F439C0181709F58B8508175D
:101BA00070F460E0FE01EE0DF11D838190E02F2DB9
:101BB00030E082239323181619064CF003C060E02E
:101BC000081729F0093008F04CC00C874AC0FE0104
:101BD000EE0DF11D83818F29838361E009C0612FA0
:101BE000FE01EE0DF11D9F2D909583818923838346
:101BF000CE010E94B80C0F5FFF0C19F4E394FF2490
:101C0000F39487E08E1508F0BBCF013430F0DB860B
:101C1000DD2011F581E08D871FC01B861D861C8687
:101C200090E0DE0120E030E0F501E20FF31F1396B3
:101C30008C91139780832F5F3F4F11962830310589
:101C400099F7892FDF91CF911F910F91FF90EF901E
:101C5000DF90BF90AF9008958B818823F1F291E0DF
:101C6000E0CFD02EBDCFFF920F931F938C01F62EA5
:101C7000862F60E00E9459148F2D90E0FC01EA55F8
:101C8000FE4FE491D801EC938E569E4FFC01649177
:101C9000E62FF0E0EE0FFF1FE857FE4F859194917D
:101CA00012969C938E9311971B961C921B971D96D0
:101CB0001C921D971C961C92F80187E090E01286FA
:101CC0003197009711F00197FACF1F910F91FF9074
:101CD0000895FC0182E39FE0928B818B768365837C
:101CE0001482108289E0818381E082838383089556
:101CF000FC01848108956F927F928F929F92AF92A0
:101D0000BF92CF92DF92EF92FF920F931F93CF93E8
:101D1000DF93FB01EA01998180E0288130E0282BE4
:101D2000392BE081E23231F0E83221F0E03109F084
:101D300084C04BC04C814F3329F1403420F44F31E3
:101D400009F07BC02FC04F3579F04F3709F075C0CF
:101D5000B901882777FD8095982F0E947A1A20E094
:101D600030E040E85DE32EC035952795B90188271E
:101D700077FD8095982F0E947A1A20E030E040E0AD
:101D80005EE320C03595279535952795B9018827BD
:101D900077FD8095982F0E947A1A20E030E040E885
:101DA0005EE310C093E0359527959A95E1F7B90168
:101DB000882777FD8095982F0E947A1A20E030E0DE
:101DC00040E05FE30E942E1B32C0EF8035952795DF
:101DD000B901882777FD8095982F0E947A1A20E014
:101DE00030E040E85EE30E9476193B014C016E2D25
:101DF00070E02E81621B7109882777FD8095982FEE
:101E00000E947A1A5B016C01FF2400E010E0C80117
:101E1000B7010E94781A9B01AC01C601B5010E946E
:101E2000DF199B01AC01C401B3010E9477199B012A
:101E3000AC01832F942F752F00C0262F382F492FE8
:101E4000572FB901CA01DF91CF911F910F91FF90D8
:101E5000EF90DF90CF90BF90AF909F908F907F904A
:101E60006F9008950895EF92FF920F931F938C0146
:101E70007B01FC01858196810E94520DF8018581CC
:101E80009681B7010E94310DF8018581968164EB3E
:101E900040E00E94EC0CF801858196810E94670C5D
:101EA000F82EF801858196810E94520D80E0FF2076
:101EB00009F481E01F910F91FF90EF900895EF9248
:101EC000FF920F931F93CF93DF93EC018B017A0165
:101ED0008D819E810E94520D8D819E81B8010E944C
:101EE000310D8D819E816EE440E00E94EC0C8D816D
:101EF0009E81F701628140E00E94EC0C8D819E8101
:101F0000F701638140E00E94EC0CF8018081803190
:101F100039F08D819E81F701648140E00E94EC0CD4
:101F20008D819E810E94520D8D819E8168E4488141
:101F30000E94EC0C8881882331F06AE070E080E038
:101F400090E00E94CC138D819E810E94520DDF9102
:101F5000CF911F910F91FF90EF900895CF92DF9254
:101F6000EF92FF920F931F938C016B017A01FC019A
:101F7000858196810E94520DF80185819681B60176
:101F80000E94310DF801858196816EEB40E00E9440
:101F9000EC0CF801858196810E949B0CF7018083EF
:101FA000F801858196810E949B0CF7018183F801DD
:101FB000858196810E949B0CF7018283F8018581BF
:101FC00096810E949B0CF7018383F801858196819D
:101FD0000E949B0CF7018483F801858196810E9401
:101FE0009B0CF7018583F801858196810E949B0CEB
:101FF000F7018683F801858196810E949B0CF70189
:102000008783F801858196810E949B0CF701808768
:10201000F801858196810E94520D1F910F91FF90CA
:10202000EF90DF90CF900895DF93CF93CDB7DEB7D9
:1020300029970FB6F894DEBF0FBECDBFAE014F5F3C
:102040005F4F0E94AE0F8981811181E029960FB602
:10205000F894DEBF0FBECDBFCF91DF910895CF9230
:10206000DF92EF92FF920F931F93CF93DF93EC01D8
:102070006B01452BE1F08B818823C9F0888188238F
:10208000B1F40E9479137B018C01CE0160E070E015
:102090000E941410882359F40E9479136E197F0945
:1020A000800B910B6E5E72408040904070F3F601A1
:1020B0006081693039F06930A0F06A3041F06B30EE
:1020C00081F40AC06EE570E080E090E00EC06CEB39
:1020D00070E080E090E009C067E771E080E090E0A8
:1020E00004C06EEE72E080E090E00E94CC13DF91BD
:1020F000CF911F910F91FF90EF90DF90CF900895B7
:10210000CF93DF93EC018D819E810E94520D8D81D2
:102110009E810E942C0D8D819E8164E448810E94E5
:10212000EC0C8A81882339F0CE012196BE0140E073
:1021300050E00E942F10DF91CF9108950F931F93CD
:102140008A010E94AE0FC80168E00E94560C20E090
:10215000F8019085891709F421E0822F1F910F91D2
:102160000895CF92DF92EF92FF920F931F93DF9328
:10217000CF93CDB7DEB729970FB6F894DEBF0FBE69
:10218000CDBF8C017B016E010894C11CD11CA6013E
:102190000E949E10882329F460E070E08EEF92EC9C
:1021A00005C0C801B701A6010E947B0E29960FB693
:1021B000F894DEBF0FBECDBFCF91DF911F910F917D
:1021C000FF90EF90DF90CF900895DF93CF93CDB73E
:1021D000DEB729970FB6F894DEBF0FBECDBF9C01C6
:1021E000FB0180818031D9F0C901AE014F5F5F4FA3
:1021F0000E949E108823A9F08D818F3371F0803466
:1022000018F48F3171F40BC08F3519F08F3749F402
:1022100002C08BE007C08CE005C08AE003C089E003
:1022200001C080E029960FB6F894DEBF0FBECDBF87
:10223000CF91DF910895CF92DF92EF92FF921F939B
:10224000DF93CF93CDB7DEB729970FB6F894DEBFF3
:102250000FBECDBF6C017B01142FAE014F5F5F4FEE
:102260000E949E108823E1F0F70180818031B9F04F
:102270001A3051F01A3050F01B3021F01C3031F47C
:102280008FE705C08FE503C08FE301C08FE18D8329
:10229000C601B701AE014F5F5F4F0E945F0F81E043
:1022A00029960FB6F894DEBF0FBECDBFCF91DF9158
:1022B0001F91FF90EF90DF90CF9008950F931F93A1
:1022C0008B01CB0167E00E94560C20E0F80197815A
:1022D000891709F421E0822F1F910F910895EF9241
:1022E000FF920F931F93CF93DF93EC017B01042F99
:1022F0008D819E810E94490C10E007C0CE01B7017C
:102300000E945E118823A9F00AC08D819E81B701C9
:102310000E949D0D882329F0101759F4EFCF81E01A
:1023200001C080E0DF91CF911F910F91FF90EF905E
:1023300008951F5F0117A8F3E8CFEF92FF920F9364
:102340001F93DF93CF93CDB7DEB728970FB6F894DE
:10235000DEBF0FBECDBF7C01462F8E010F5F1F4F2A
:10236000B8010E946F11C701B8010E94B1102896F0
:102370000FB6F894DEBF0FBECDBFCF91DF911F9196
:102380000F91FF90EF900895CF92DF92EF92FF921E
:102390000F931F93DF93CF93CDB7DEB728970FB678
:1023A000F894DEBF0FBECDBF7C01693010F469E048
:1023B00003C06D3008F06CE0F701618300E010E0CD
:1023C0006E010894C11CD11C0DC0C701B601402F7D
:1023D0000E946F11C701B601F70141810E941B11D4
:1023E0000F5F1F4FF701848190E0081719076CF306
:1023F00028960FB6F894DEBF0FBECDBFCF91DF9108
:102400001F910F91FF90EF90DF90CF900895AF92C2
:10241000BF92CF92DF92EF92FF920F931F93DF93C1
:10242000CF93CDB7DEB761970FB6F894DEBF0FBE7E
:10243000CDBF7C01FC01858196810E94490CF7018A
:1024400014826E010894C11CD11C79E0A72EB12C16
:10245000AC0EBD1E01E02BC0C701B6010E945E118B
:10246000882329F1F7018081882341F4C701B6014F
:102470000E94330F882311F0F7010083C701B601D2
:10248000A5010E94AE0FF7011181C701B6010E949C
:10249000E510811718F4F701818104C0C701B60166
:1024A0000E94E510F701818384818F5F8483F701A7
:1024B00085819681B6010E949D0D882369F66196FB
:1024C0000FB6F894DEBF0FBECDBFCF91DF911F9145
:1024D0000F91FF90EF90DF90CF90BF90AF90089555
:1024E000FC016081718162537240882777FD80957D
:1024F000982F0E947A1A28EE3FE948E85FE30E948D
:102500002E1B0E944C1ADC01CB0108950F931F93E0
:102510008C0183E00E94341485E10E943714F80195
:10252000918380831F910F910895823000F5E82FE9
:10253000F0E0EE0FFF1FEE5AFB4F7183608388239C
:1025400019F08130A1F408C0809169008C7F842B40
:1025500080936900E89A089580916900440F551F9F
:10256000440F551F837F842B80936900E99A089557
:10257000823080F4882319F0813021F402C0E89879
:1025800001C0E998E82FF0E0EE0FFF1FEE5AFB4F75
:102590001182108208951F920F920FB60F9211248C
:1025A0002F933F934F935F936F937F938F939F935B
:1025B000AF93BF93EF93FF93809152049091530494
:1025C000892B29F0E0915204F09153040995FF9171
:1025D000EF91BF91AF919F918F917F916F915F919B
:1025E0004F913F912F910F900FBE0F901F90189514
:1025F0001F920F920FB60F9211242F933F934F9378
:102600005F936F937F938F939F93AF93BF93EF935A
:10261000FF938091540490915504892B29F0E09107
:102620005404F09155040995FF91EF91BF91AF913A
:102630009F918F917F916F915F914F913F912F91DA
:102640000F900FBE0F901F9018951F920F920FB60C
:102650000F9211242F933F934F935F936F937F9328
:102660008F939F93AF93BF9320915A0430915B0453
:1026700040915C0450915D0470915E04DA01C901DF
:102680000296A11DB11D672F6A5F6D3730F06D573F
:10269000DA01C9010396A11DB11D60935E04809308
:1026A0005A0490935B04A0935C04B0935D04809102
:1026B000560490915704A0915804B0915904019682
:1026C000A11DB11D8093560490935704A093580404
:1026D000B0935904BF91AF919F918F917F916F916A
:1026E0005F914F913F912F910F900FBE0F901F90D0
:1026F00018958FB7F89420915A0430915B0440915B
:102700005C0450915D048FBFB901CA01089501971F
:1027100039F0019729F0880F991F01970197F1F778
:102720000895789484B5826084BD84B5816084BD49
:1027300085B5826085BD85B5816085BDEEE6F0E03A
:10274000808181608083E1E8F0E010828081826096
:102750008083808181608083E0E8F0E08081816017
:102760008083E1EBF0E0808184608083E0EBF0E047
:10277000808181608083EAE7F0E0808184608083EB
:102780008081826080838081816080838081806895
:1027900080831092C1000895EF92FF920F931F93D0
:1027A000CF93DF937B018C013FB7F894809156045F
:1027B00090915704A0915804B091590426B5A89B54
:1027C00005C02F3F19F00196A11DB11D3FBFBA2FC3
:1027D000A92F982F8827820F911DA11DB11D53E0AD
:1027E000880F991FAA1FBB1F5A95D1F7EC0130C063
:1027F0000E9475193FB7F894809156049091570440
:10280000A0915804B091590426B5A89B05C02F3F4C
:1028100019F00196A11DB11D3FBFBA2FA92F982F06
:102820008827820F911DA11DB11D33E0880F991FCC
:10283000AA1FBB1F3A95D1F78C1B9D0B885E934056
:10284000B8F20894E108F10801091109C851DC4FF8
:10285000E114F1040105110559F6DF91CF911F91A3
:102860000F91FF90EF9008958093E8010895982FBD
:102870008E3008F09E5097708091E8018295880F05
:10288000880F807C892B80937C0080917A00806403
:1028900080937A0080917A0086FDFCCF20917800A9
:1028A00040917900942F80E030E0282B392BC9012A
:1028B0000895CF93DF93482F50E0CA018A559E4F69
:1028C000FC0134914E565E4FFA018491882369F1E0
:1028D00090E0880F991FFC01EC58FE4FA591B49130
:1028E000FC01E258FE4FC591D491662351F42FB7F5
:1028F000F8948C91932F909589238C9388818923C8
:102900000BC0623061F42FB7F8948C91932F90959F
:1029100089238C938881832B88832FBF06C09FB720
:10292000F8948C91832B8C939FBFDF91CF91089566
:10293000482F50E0CA0186549E4FFC012491CA01E1
:102940008A559E4FFC0194914E565E4FFA01349188
:10295000332309F440C0222351F1233071F0243095
:1029600028F42130A1F0223011F514C02630B1F046
:102970002730C1F02430D9F404C0809180008F77D3
:1029800003C0809180008F7D8093800010C084B54B
:102990008F7702C084B58F7D84BD09C08091B0005F
:1029A0008F7703C08091B0008F7D8093B000E32FBC
:1029B000F0E0EE0FFF1FE258FE4FA591B4912FB744
:1029C000F894662321F48C919095892302C08C9110
:1029D000892B8C932FBF0895DC015C968C915C97BA
:1029E000FD01E80FF11DE35AFF4F20815C968C91A9
:1029F0005C9790E001968F7390705C968C935C97D7
:102A00005696ED91FC91579720835096ED91FC914D
:102A100051978081806480835B969C915B975C96E4
:102A20008C915C97981739F45296ED91FC915397DD
:102A300080818F7D80830895DF92EF92FF920F93C4
:102A40001F93CF93DF93EC017A018B01D22E60E8C4
:102A500074E88EE190E0A80197010E94D31B2150F9
:102A60003040404050405695479537952795E88926
:102A7000F98982E0808380E12030380798F0E88986
:102A8000F989108260E472E48FE090E0A801970178
:102A90000E94D31B215030404040504056954795EE
:102AA00037952795EC85FD853083EE85FF8520835E
:102AB000188EEC89FD89D082EA89FB89808180614A
:102AC0008083EA89FB89808188608083EA89FB8929
:102AD000808180688083EA89FB8980818F7D808303
:102AE000DF91CF911F910F91FF90EF90DF900895AC
:102AF000FC01218D828D30E0205C3F4F281B310985
:102B00002F733070C9010895FC01918D828D981743
:102B100019F42FEF3FEF06C0828DE80FF11D858D70
:102B2000282F30E0C9010895DC0159969C915997EE
:102B30005A968C915A97981719F42FEF3FEF10C0BF
:102B40005A968C915A97FD01E80FF11D958D5A9672
:102B50008C915A978F5F8F735A968C93292F30E000
:102B6000C9010895CF93DF93EC01888D882361F428
:102B700019C08C9185FF0AC0E889F989808185FF99
:102B800005C0CE010E94EC14AA89BB898C9185FDF9
:102B900005C0E889F989808186FD04C00FB607FE6B
:102BA000E8CFF4CFDF91CF9108950F931F93CF9388
:102BB000DF93EC01062F9B8D8C8D981791F5E8899A
:102BC000F989808185FF2DC0EE89FF896083E889BE
:102BD000F9898081806480831DC00FB607FC08C01E
:102BE000E889F989808185FF03C0CE010E94EC1439
:102BF0008C8D181791F38B8DFE01E80FF11DE35AB0
:102C0000FF4F00831B8FEA89FB898081806280836C
:102C100081E0888F81E090E0DF91CF911F910F914B
:102C200008951B8D1F5F1F73E3CF8DE996E1892BFC
:102C300051F080E090E0892B31F00E949D168823AE
:102C400011F00E94000008951F920F920FB60F928C
:102C500011242F938F939F93EF93FF93E0916F0431
:102C6000F0917004808182FD16C0E0917504F091AE
:102C700076042081909178049F5F9F7380917904FE
:102C8000981771F0E0917804F0E0E15AFB4F258F3E
:102C90009093780405C0E0917504F0917604E0818A
:102CA000FF91EF919F918F912F910F900FBE0F90F9
:102CB0001F901895109262041092610488EE93E0C0
:102CC000A0E0B0E08093630490936404A093650453
:102CD000B093660485E092E09093600480935F0473
:102CE00085EC90E090936C0480936B0484EC90E00E
:102CF00090936E0480936D0480EC90E09093700448
:102D000080936F0481EC90E090937204809371043F
:102D100082EC90E0909374048093730486EC90E0CE
:102D2000909376048093750410927804109279043D
:102D300010927A0410927B0408958FE594E00E942B
:102D4000781520E0892B09F021E0822F08951F9249
:102D50000F920FB60F9211242F933F934F935F93CF
:102D60006F937F938F939F93AF93BF93EF93FF9353
:102D70008FE594E00E94EC14FF91EF91BF91AF9129
:102D80009F918F917F916F915F914F913F912F9183
:102D90000F900FBE0F901F901895CF93DF930E9456
:102DA00091130E94A205C5E1D6E10E944905209732
:102DB000E1F30E941516F9CFCF92DF92EF92FF92C6
:102DC0000F931F93CF93DF937C016B018A01C0E0C7
:102DD000D0E00FC0D6016D916D01D701ED91FC914E
:102DE0000190F081E02DC7010995C80FD91F01504E
:102DF00010400115110571F7CE01DF91CF911F91A0
:102E00000F91FF90EF90DF90CF900895EF92FF9297
:102E10000F931F938C01DC01ED91FC910190F081E7
:102E2000E02D6DE009957C01D801ED91FC910190B8
:102E3000F081E02DC8016AE009959C012E0D3F1D2F
:102E4000C9011F910F91FF90EF900895CF93DF93E9
:102E5000EC016115710519F420E030E00FC0DB01D1
:102E60000D900020E9F71197A61BB70BE881F981B7
:102E70000280F381E02DAD0109959C01C901DF912C
:102E8000CF9108954F925F927F928F929F92AF92CF
:102E9000BF92CF92DF92EF92FF920F931F93DF9337
:102EA000CF93CDB7DEB7A1970FB6F894DEBF0FBEB4
:102EB000CDBF2C01742ECB01223008F42AE019A2D8
:102EC00031E2C32ED12CCC0EDD1E822E9924AA24F1
:102ED000BB24672D752FA50194010E94D31B790196
:102EE0008A01C801B701A50194010E94951B472DD5
:102EF000461B0894C108D1084A3014F4405D01C053
:102F0000495CF6014083E114F1040105110521F04B
:102F10007E2C5F2DC801DDCFC201B6010E942617AD
:102F2000A1960FB6F894DEBF0FBECDBFCF91DF9153
:102F30001F910F91FF90EF90DF90CF90BF90AF90D7
:102F40009F908F907F905F904F900895DC012115A6
:102F5000310541F4ED91FC910190F081E02D642F59
:102F6000099508950E9442170895EF92FF920F93DA
:102F70001F939A017B0100E010E0B801A7010E94B5
:102F8000A6171F910F91FF90EF900895EF92FF9277
:102F90000F931F939A01E62EFF2400E010E0B80182
:102FA000A7010E94A6171F910F91FF90EF9008951F
:102FB000CF92DF92EF92FF920F931F936C01E62E58
:102FC0009A01FF2400E010E0B801A7010E94A617B3
:102FD0008C01C6010E940617080F191FC8011F9116
:102FE0000F91FF90EF90DF90CF900895CF92DF92F6
:102FF000EF92FF920F931F93CF93DF93EC016A013F
:103000007B012115310541F4E881F9810190F081BE
:10301000E02D642F09951FC02A303105D1F477FFC8
:1030200017C0E881F9810190F081E02D6DE20995EA
:103030008C0144275527BA014C195D096E097F0997
:10304000CE012AE00E9442179801280F391F04C0C0
:103050002AE00E9442179C01C901DF91CF911F9184
:103060000F91FF90EF90DF90CF900895EF92FF9235
:103070000F931F937B019A010027F7FC0095102FF7
:10308000B801A7010E94F6171F910F91FF90EF90D2
:103090000895CF92DF92EF92FF920F931F936C01EE
:1030A0007B019A010027F7FC0095102FB801A701BA
:1030B0000E94F6178C01C6010E940617080F191FFF
:1030C000C8011F910F91FF90EF90DF90CF9008956E
:1030D0000E94261708957F928F929F92AF92BF927F
:1030E000CF92DF92EF92FF920F931F93CF93DF93D4
:1030F0004C017A018B01722ECB01BA01A801970114
:103100000E94911B882321F0C4016AED71E021C067
:10311000C0E0D0E057016801E894D7F8C601B501D6
:103120002FEF3FEF4FE75FE70E94911B882351F499
:10313000C601B5012FEF3FEF4FE75FE70E94DB19B4
:10314000181614F0C1E0D0E0219739F0C4016EEDFB
:1031500071E00E942617EC0193C0C801B7012FEF60
:103160003FEF4FE75FE40E942A1B181654F0C80196
:10317000B7012FEF3FEF4FE75FEC0E94DB19882389
:1031800024F4C40162EE71E0E4CFC801B70120E08D
:1031900030E040E050E00E94DB1987FD03C0C0E052
:1031A000D0E00EC0D401ED91FC910190F081E02DB2
:1031B000C4016DE20995EC0117FB109517F9109504
:1031C00020E030E040E05FE3DD240BC0CA01B9013C
:1031D00020E030E040E251E40E94DF199B01AC01A5
:1031E000D394D71498F3C801B7010E9477195B01F3
:1031F0006C010E944C1A7B018C01C401B801A7012B
:103200002AE030E00E94A617C80FD91F772039F0B6
:10321000C40166EE71E00E942617C80FD91FC801CD
:10322000B7010E94781A9B01AC01C601B5010E944A
:10323000761924C020E030E040E251E40E942E1BC9
:103240007B018C010E94471A5B016C01CC24B7FC06
:10325000C094DC2CC401B601A5012AE030E00E9434
:10326000F617C80FD91FC601B5010E947A1A9B0133
:10327000AC01C801B7010E9476197A947720D1F683
:10328000CE01DF91CF911F910F91FF90EF90DF90D2
:10329000CF90BF90AF909F908F907F900895EF92C6
:1032A000FF920F931F937C010E946B188C01C70142
:1032B0000E940617080F191FC8011F910F91FF9058
:1032C000EF900895EF92FF920F931F937C010E945D
:1032D00026178C01C7010E940617080F191FC80185
:1032E0001F910F91FF90EF90089508955058BB27BC
:1032F000AA270ED075C166D130F06BD120F031F421
:103300009F3F11F41EF45BC10EF4E095E7FB51C141
:10331000E92F77D180F3BA176207730784079507FF
:1033200018F071F49EF58FC10EF4E0950B2EBA2FB4
:10333000A02D0B01B90190010C01CA01A0011124BB
:10334000FF27591B99F0593F50F4503E68F11A1667
:10335000F040A22F232F342F4427585FF3CF4695F8
:1033600037952795A795F0405395C9F77EF41F161A
:10337000BA0B620B730B840BBAF09150A1F0FF0FE4
:10338000BB1F661F771F881FC2F70EC0BA0F621FD0
:10339000731F841F48F4879577956795B795F795C0
:1033A0009E3F08F0B3CF9395880F08F09927EE0F52
:1033B000979587950895D9D008F481E008950CD0A9
:1033C0000FC107D140F0FED030F021F45F3F19F07B
:1033D000F0C0511139C1F3C014D198F39923C9F346
:1033E0005523B1F3951B550BBB27AA27621773070B
:1033F000840738F09F5F5F4F220F331F441FAA1FBF
:10340000A9F333D00E2E3AF0E0E830D0915050407E
:10341000E695001CCAF729D0FE2F27D0660F771F2C
:10342000881FBB1F261737074807AB07B0E809F00E
:10343000BB0B802DBF01FF2793585F4F2AF09E3FA3
:10344000510568F0B6C000C15F3FECF3983EDCF375
:10345000869577956795B795F7959F5FC9F7880F1C
:10346000911D9695879597F90895E1E0660F771F6E
:10347000881FBB1F621773078407BA0720F0621BFF
:10348000730B840BBA0BEE1F88F7E095089504D0F8
:103490006894B111D9C00895BCD088F09F5790F0BE
:1034A000B92F9927B751A0F0D1F0660F771F881F69
:1034B000991F1AF0BA95C9F712C0B13081F0C3D084
:1034C000B1E00895C0C0672F782F8827B85F39F022
:1034D000B93FCCF3869577956795B395D9F73EF4C8
:1034E00090958095709561957F4F8F4F9F4F089570
:1034F000E89409C097FB3EF490958095709561958E
:103500007F4F8F4F9F4F9923A9F0F92F96E9BB2743
:103510009395F695879577956795B795F111F8CFBF
:10352000FAF4BB0F11F460FF1BC06F5F7F4F8F4F2A
:103530009F4F16C0882311F096E911C0772321F020
:103540009EE8872F762F05C0662371F096E8862FB8
:1035500070E060E02AF09A95660F771F881FDAF70F
:10356000880F9695879597F90895990F0008550F3C
:10357000AA0BE0E8FEEF16161706E807F907C0F0F9
:1035800012161306E407F50798F0621B730B840B01
:10359000950B39F40A2661F0232B242B252B21F4DB
:1035A00008950A2609F4A140A6958FEF811D811D7B
:1035B000089597F99F6780E870E060E008959FEFB5
:1035C00080EC089500240A941616170618060906BA
:1035D000089500240A941216130614060506089589
:1035E000092E0394000C11F4882352F0BB0F40F411
:1035F000BF2B11F460FF04C06F5F7F4F8F4F9F4F51
:10360000089557FD9058440F551F59F05F3F71F0D2
:103610004795880F97FB991F61F09F3F79F0879539
:103620000895121613061406551FF2CF4695F1DFC2
:1036300008C0161617061806991FF1CF8695710552
:10364000610508940895E894BB2766277727CB0186
:1036500097F908958ADF08F48FEF08950BD0C0CF53
:10366000B1DF28F0B6DF18F0952309F0A2CFA7CF7D
:103670001124EACFC6DFA0F3959FD1F3950F50E058
:10368000551F629FF001729FBB27F00DB11D639F14
:10369000AA27F00DB11DAA1F649F6627B00DA11DBA
:1036A000661F829F2227B00DA11D621F739FB00D60
:1036B000A11D621F839FA00D611D221F749F3327D0
:1036C000A00D611D231F849F600D211D822F762F69
:1036D0006A2F11249F5750408AF0E1F088234AF066
:1036E000EE0FFF1FBB1F661F771F881F91505040B2
:1036F000A9F79E3F510570F05CCFA6CF5F3FECF37A
:10370000983EDCF3869577956795B795F795E7959D
:103710009F5FC1F7FE2B880F911D9695879597F9AE
:10372000089523DF880B990B0895629FD001739F42
:10373000F001829FE00DF11D649FE00DF11D929F4D
:10374000F00D839FF00D749FF00D659FF00D99278C
:10375000729FB00DE11DF91F639FB00DE11DF91FB0
:10376000BD01CF0111240895991B79E004C0991F70
:10377000961708F0961B881F7A95C9F780950895CB
:1037800097FB092E07260AD077FD04D02ED006D04D
:1037900000201AF4709561957F4F0895F6F7909583
:1037A00081959F4F0895A1E21A2EAA1BBB1BFD0114
:1037B0000DC0AA1FBB1FEE1FFF1FA217B307E40710
:1037C000F50720F0A21BB30BE40BF50B661F771F68
:1037D000881F991F1A9469F7609570958095909548
:1037E0009B01AC01BD01CF010895AA1BBB1B51E198
:1037F00007C0AA1FBB1FA617B70710F0A61BB70B61
:10380000881F991F5A95A9F780959095BC01CD0105
:103810000895EE0FFF1F0590F491E02D0994F894A0
:02382000FFCFD8
:103822000A5061636B65742073656E740030002DFD
:103832000020003A00526F6F662073656E736F72DC
:10384200732064657465637465643A20004C617723
:103852006E2073656E736F72732064657465637432
:1038620065643A20004169722073656E736F7273EA
:103872002064657465637465643A2000416464720F
:103882006573733A20002C2054656D706572617403
:103892007572653A20000A0A4177616B65202D2016
:1038A200000A526F6F662073656E736F72733A20EF
:1038B200000A4C61776E2073656E736F72733A20E3
:1038C200000A4169722073656E736F72733A200049
:1038D200655265736561726368202D20526F77654A
:1038E20073204261792054656D70657261747572DE
:1038F20065204D6F6E69746F72006E616E00696E45
:1039020066006F7666002E0001000000005E062D44
:1039120006E605EF0504061506000000003C0B7FD5
:103922000B00000000D515DC16781594158415B22D
:0239320015007E
:00000001FF
